S01A000052656D6F7465536D61727448656174696E672E73726563D7
S11300000C942A000C943F000C943F000C943F0085
S11300100C943F000C943F000C943F000C943F0060
S11300200C943F000C943F000C943F000C943F0050
S11300300C943F000C943F000C943F000C943F0040
S11300400C943F000C943F000C943F000C943F0030
S11300500C943F0011241FBECFE5D8E0DEBFCDBF16
S113006010E0A0E6B0E0E4EEF3E002C005900D92EB
S1130070A836B107D9F70E9474000C94F0010C94CF
S11300800000681B790B072E000C880B990B0E944B
S1130090C200209161003091620040916300509150
S11300A064000E9426010E94910080916000680F04
S11300B06093600008951ABA87E886B980E487B926
S11300C0089597B18F70982B97B9369A349BFECFC9
S11300D08AE18A95F1F700C024B185B190E0982FA8
S11300E08827820F911D0895CF93DF9300D000D00D
S11300F01F92CDB7DEB70E945B0080E00E946100D2
S11301008C016091660070E08091650090E00E942F
S113011041004AE0BE016F5F7F4FC8010E94BB01EE
S1130120ECCF0E94050188F09F5798F0B92F9927CA
S1130130B751B0F0E1F0660F771F881F991F1AF0CE
S1130140BA95C9F714C0B13091F00E941F01B1E013
S113015008950C941F01672F782F8827B85F39F012
S1130160B93FCCF3869577956795B395D9F73EF467
S113017090958095709561957F4F8F4F9F4F08950F
S1130180E89409C097FB3EF490958095709561952D
S11301907F4F8F4F9F4F9923A9F0F92F96E9BB27E3
S11301A09395F695879577956795B795F111F8CF5F
S11301B0FAF4BB0F11F460FF1BC06F5F7F4F8F4FCA
S11301C09F4F16C0882311F096E911C0772321F0C0
S11301D09EE8872F762F05C0662371F096E8862F58
S11301E070E060E02AF09A95660F771F881FDAF7AF
S11301F0880F9695879597F9089557FD9058440F61
S1130200551F59F05F3F71F04795880F97FB991F71
S113021061F09F3F79F0879508951216130614062E
S1130220551FF2CF4695F1DF08C0161617061806BB
S1130230991FF1CF86957105610508940895E89496
S1130240BB2766277727CB0197F908950E943901C8
S11302500C94AA010E949C0138F00E94A30120F092
S1130260952311F00C9493010C94990111240C948E
S113027020010E94FD0070F3959FC1F3950F50E09B
S1130280551F629FF001729FBB27F00DB11D639F44
S1130290AA27F00DB11DAA1F649F6627B00DA11DEA
S11302A0661F829F2227B00DA11D621F739FB00D90
S11302B0A11D621F839FA00D611D221F749F332700
S11302C0A00D611D231F849F600D211D822F762F99
S11302D06A2F11249F5750409AF0F1F088234AF076
S11302E0EE0FFF1FBB1F661F771F881F91505040E2
S11302F0A9F79E3F510580F00C9493010C942001C2
S11303005F3FE4F3983ED4F3869577956795B79568
S1130310F795E7959F5FC1F7FE2B880F911D969582
S1130320879597F9089597F99F6780E870E060E0F2
S113033008959FEF80EC089500240A94161617067A
S113034018060906089500240A94121613061406C2
S113035005060895092E0394000C11F4882352F025
S1130360BB0F40F4BF2B11F460FF04C06F5F7F4FDD
S11303708F4F9F4F0895BB274A3031F4992322F4BD
S1130380BDE2909581959F4F0C94C701BB27FB015B
S11303905527AA27880F991FAA1FA41710F0A41B7A
S11303A083955051B9F7A05DAA3308F0A95DA193D4
S11303B0009779F7B111B1931192CB010C94E0013C
S11303C0DC01FC01672F71917723E1F7329704C0B8
S11303D07C916D9370836291AE17BF07C8F3089543
S10703E0F894FFCFBB
S10B03E432CDCCCC3E141E0006
S9030000FC
