S01A000052656D6F7465536D61727448656174696E672E73726563D7
S11300000C942A000C943F000C943F000C943F0085
S11300100C943F000C943F000C943F000C943F0060
S11300200C943F000C943F000C943F000C943F0050
S11300300C943F000C943F000C943F000C943F0040
S11300400C943F000C943F000C943F000C943F0030
S11300500C943F0011241FBECFE5D8E0DEBFCDBF16
S113006010E0A0E6B0E0E6E7F2E002C005900D92F1
S1130070A636B107D9F70E94D2000C9439010C942A
S1130080000098B39F70282F207F922B98BBC098B4
S1130090C19AE7ECF0E03197F1F700C00000C19895
S11300A0EFE3FCE93197F1F700C0000028B32F70AB
S11300B0F0E18F9FC0011124822B88BBC19A87EC89
S11300C090E00197F1F700C00000C1989FEFE1EEC6
S11300D0F4E09150E040F040E1F700C000000895E2
S11300E098B39F70282F207F922B98BBC09AC19AF7
S11300F0EFECF7E03197F1F700C00000C198EFE3AF
S1130100FCE93197F1F700C0000028B32F70F0E14B
S11301108F9FC0011124822B88BBC19A87EC90E089
S11301200197F1F700C00000C1989FEFE1EEF4E001
S11301309150E040F040E1F700C0000008958FEFD7
S113014087BB2FEF83ED90E3215080409040E1F78F
S113015000C0000082E00E94410088E20E94410049
S11301608CE00E94410086E00E94410081E00E94F0
S113017041002FEF81EE94E0215080409040E1F760
S113018000C000000895CF93DF93EC018881882399
S113019031F021960E94700089918111FBCFDF918B
S11301A0CF910895CF93DF9300D000D01F92CDB7A5
S11301B0DEB70E949F0081E690E00E94C3002AEA15
S11301C036EE86E991E02150304080409040D9F7E6
S11301D0000080EC0E94410080916000BE016F5FCE
S11301E07F4F90E00E94F900CE0101960E94C30067
S11301F0FFCF4532510520F4423010F00C94040135
S1130200FB011082CB010895BB274A3031F49923B6
S113021022F4BDE2909581959F4F0C941001BB2769
S1130220FB015527AA27880F991FAA1FA41710F0AE
S1130230A41B83955051B9F7A05DAA3308F0A95DBA
S1130240A193009779F7B111B1931192CB010C945A
S11302502901DC01FC01672F71917723E1F73297C3
S113026004C07C916D9370836291AE17BF07C8F38D
S10902700895F894FFCF8D
S10902761454656D7000D4
S9030000FC
