:100000000C942A000C943F000C943F000C943F0089
:100010000C943F000C943F000C943F000C943F0064
:100020000C943F000C943F000C943F000C943F0054
:100030000C943F000C943F000C943F000C943F0044
:100040000C943F000C943F000C943F000C943F0034
:100050000C943F0011241FBECFE5D8E0DEBFCDBF1A
:1000600010E0A0E6B0E0E0E4F5E002C005900D92FB
:10007000AC36B107D9F70E9407010C949E020C948C
:100080000000681B790B072E000C880B990B0E944F
:100090007001209165003091660040916700509199
:1000A00068000E94D4010E943F0180916000680FA7
:1000B0006093600008951ABA87E886B980E687B928
:1000C0000895369A349BFECF8AE18A95F1F700C0F5
:1000D00065B170E080E090E00E94700120916100C5
:1000E0003091620040916300509164000E94D401FD
:1000F0000E943F0160936900089598B39F70282F74
:10010000207F922B98BBC098C19A32E03A95F1F7C4
:1001100000C0C198EFE8F1E03197F1F700C00000AE
:1001200028B32F70F0E18F9FC0011124822B88BB70
:10013000C19A32E03A95F1F700C0C1988FE99FE08B
:100140000197F1F700C00000089598B39F70282F21
:10015000207F922B98BBC09AC19A32E03A95F1F772
:1001600000C0C198EFE8F1E03197F1F700C000005E
:1001700028B32F70F0E18F9FC0011124822B88BB20
:10018000C19A32E03A95F1F700C0C1988FE99FE03B
:100190000197F1F700C0000008958FEF87BB8FE350
:1001A0009CE90197F1F700C0000082E00E947D0009
:1001B00088E20E947D008CE00E947D0086E00E9423
:1001C0007D0081E00E947D008FE99FE00197F1F7BB
:1001D00000C000000895CF93DF93EC01888188234D
:1001E00031F021960E94A50089918111FBCFDF910A
:1001F000CF91089581E00E947D008FE99FE00197F3
:10020000F1F700C0000080E80E947D000895CF93C0
:10021000DF9300D000D01F92CDB7DEB70E945B0005
:100220000E94CD000E94610060916A0070E08091A0
:10023000690090E00E9441000E94FA0080916900EC
:100240004AE0BE016F5F7F4F90E00E94690281E843
:100250000E947D00CE0101960E94EB00809160001B
:100260004AE0BE016F5F7F4F90E00E94690281E823
:100270000E947D00CE0101960E94EB00D3CF0E9428
:10028000B30188F09F5798F0B92F9927B751B0F074
:10029000E1F0660F771F881F991F1AF0BA95C9F70A
:1002A00014C0B13091F00E94CD01B1E008950C94DA
:1002B000CD01672F782F8827B85F39F0B93FCCF38D
:1002C000869577956795B395D9F73EF49095809587
:1002D000709561957F4F8F4F9F4F0895E89409C0A7
:1002E00097FB3EF490958095709561957F4F8F4F69
:1002F0009F4F9923A9F0F92F96E9BB279395F6957F
:10030000879577956795B795F111F8CFFAF4BB0FFC
:1003100011F460FF1BC06F5F7F4F8F4F9F4F16C060
:10032000882311F096E911C0772321F09EE8872FEA
:10033000762F05C0662371F096E8862F70E060E0A6
:100340002AF09A95660F771F881FDAF7880F96951F
:10035000879597F9089557FD9058440F551F59F008
:100360005F3F71F04795880F97FB991F61F09F3FA2
:1003700079F087950895121613061406551FF2CFCB
:100380004695F1DF08C0161617061806991FF1CF1B
:1003900086957105610508940895E894BB27662742
:1003A0007727CB0197F908950E94E7010C94580232
:1003B0000E944A0238F00E94510220F0952311F069
:1003C0000C9441020C94470211240C94CE010E941B
:1003D000AB0170F3959FC1F3950F50E0551F629FDD
:1003E000F001729FBB27F00DB11D639FAA27F00D8E
:1003F000B11DAA1F649F6627B00DA11D661F829FB5
:100400002227B00DA11D621F739FB00DA11D621F99
:10041000839FA00D611D221F749F3327A00D611DB6
:10042000231F849F600D211D822F762F6A2F112498
:100430009F5750409AF0F1F088234AF0EE0FFF1FCB
:10044000BB1F661F771F881F91505040A9F79E3F22
:10045000510580F00C9441020C94CE015F3FE4F30F
:10046000983ED4F3869577956795B795F795E79578
:100470009F5FC1F7FE2B880F911D9695879597F981
:10048000089597F99F6780E870E060E008959FEF16
:1004900080EC089500240A9416161706180609061B
:1004A000089500240A9412161306140605060895EA
:1004B000092E0394000C11F4882352F0BB0F40F472
:1004C000BF2B11F460FF04C06F5F7F4F8F4F9F4FB2
:1004D0000895BB274A3031F4992322F4BDE2909568
:1004E00081959F4F0C947502BB27FB015527AA27C6
:1004F000880F991FAA1FA41710F0A41B83955051B1
:10050000B9F7A05DAA3308F0A95DA193009779F728
:10051000B111B1931192CB010C948E02DC01FC015C
:10052000672F71917723E1F7329704C07C916D9327
:1005300070836291AE17BF07C8F30895F894FFCF98
:0C0540003266668640CDCCCC3E141E0016
:00000001FF
